{
  "_format": "hh3-artifact-1",
  "contractName": "AlertRegistry",
  "sourceName": "contracts/AlertRegistry.sol",
  "abi": [
    {
      "anonymous": false,
      "inputs": [
        {
          "indexed": true,
          "internalType": "uint256",
          "name": "id",
          "type": "uint256"
        },
        {
          "indexed": true,
          "internalType": "address",
          "name": "garden",
          "type": "address"
        },
        {
          "indexed": true,
          "internalType": "address",
          "name": "manager",
          "type": "address"
        },
        {
          "indexed": false,
          "internalType": "string",
          "name": "reason",
          "type": "string"
        }
      ],
      "name": "AlertSaved",
      "type": "event"
    },
    {
      "inputs": [
        {
          "internalType": "uint256",
          "name": "",
          "type": "uint256"
        }
      ],
      "name": "alerts",
      "outputs": [
        {
          "internalType": "address",
          "name": "garden",
          "type": "address"
        },
        {
          "internalType": "address",
          "name": "manager",
          "type": "address"
        },
        {
          "internalType": "string",
          "name": "reason",
          "type": "string"
        },
        {
          "internalType": "uint256",
          "name": "timestamp",
          "type": "uint256"
        },
        {
          "internalType": "bytes",
          "name": "metadata",
          "type": "bytes"
        }
      ],
      "stateMutability": "view",
      "type": "function"
    },
    {
      "inputs": [],
      "name": "alertsCount",
      "outputs": [
        {
          "internalType": "uint256",
          "name": "",
          "type": "uint256"
        }
      ],
      "stateMutability": "view",
      "type": "function"
    },
    {
      "inputs": [
        {
          "internalType": "address",
          "name": "garden",
          "type": "address"
        },
        {
          "internalType": "address",
          "name": "manager",
          "type": "address"
        },
        {
          "internalType": "string",
          "name": "reason",
          "type": "string"
        },
        {
          "internalType": "bytes",
          "name": "metadata",
          "type": "bytes"
        }
      ],
      "name": "saveAlert",
      "outputs": [],
      "stateMutability": "nonpayable",
      "type": "function"
    }
  ],
  "bytecode": "0x608060405234801561001057600080fd5b50610d82806100206000396000f3fe608060405234801561001057600080fd5b50600436106100415760003560e01c806310de44d814610046578063171d073a14610062578063382a97ef14610096575b600080fd5b610060600480360381019061005b91906105c6565b6100b4565b005b61007c600480360381019061007791906106a3565b610301565b60405161008d9594939291906107d3565b60405180910390f35b61009e610497565b6040516100ab9190610834565b60405180910390f35b60006040518060a001604052808873ffffffffffffffffffffffffffffffffffffffff1681526020018773ffffffffffffffffffffffffffffffffffffffff16815260200186868080601f016020809104026020016040519081016040528093929190818152602001838380828437600081840152601f19601f82011690508083019250505050505050815260200142815260200184848080601f016020809104026020016040519081016040528093929190818152602001838380828437600081840152601f19601f82011690508083019250505050505050815250908060018154018082558091505060019003906000526020600020906005020160009091909190915060008201518160000160006101000a81548173ffffffffffffffffffffffffffffffffffffffff021916908373ffffffffffffffffffffffffffffffffffffffff16021790555060208201518160010160006101000a81548173ffffffffffffffffffffffffffffffffffffffff021916908373ffffffffffffffffffffffffffffffffffffffff160217905550604082015181600201908161025d9190610a8a565b5060608201518160030155608082015181600401908161027d9190610bb7565b5050508473ffffffffffffffffffffffffffffffffffffffff168673ffffffffffffffffffffffffffffffffffffffff1660016000805490506102c09190610cb8565b7fc858c771bfc81bd4eedaf98e84307a86617a407bbfe192bb96e92aecdb1b7a3587876040516102f1929190610d28565b60405180910390a4505050505050565b6000818154811061031157600080fd5b90600052602060002090600502016000915090508060000160009054906101000a900473ffffffffffffffffffffffffffffffffffffffff16908060010160009054906101000a900473ffffffffffffffffffffffffffffffffffffffff1690806002018054610380906108ad565b80601f01602080910402602001604051908101604052809291908181526020018280546103ac906108ad565b80156103f95780601f106103ce576101008083540402835291602001916103f9565b820191906000526020600020905b8154815290600101906020018083116103dc57829003601f168201915b505050505090806003015490806004018054610414906108ad565b80601f0160208091040260200160405190810160405280929190818152602001828054610440906108ad565b801561048d5780601f106104625761010080835404028352916020019161048d565b820191906000526020600020905b81548152906001019060200180831161047057829003601f168201915b5050505050905085565b60008080549050905090565b600080fd5b600080fd5b600073ffffffffffffffffffffffffffffffffffffffff82169050919050565b60006104d8826104ad565b9050919050565b6104e8816104cd565b81146104f357600080fd5b50565b600081359050610505816104df565b92915050565b600080fd5b600080fd5b600080fd5b60008083601f8401126105305761052f61050b565b5b8235905067ffffffffffffffff81111561054d5761054c610510565b5b60208301915083600182028301111561056957610568610515565b5b9250929050565b60008083601f8401126105865761058561050b565b5b8235905067ffffffffffffffff8111156105a3576105a2610510565b5b6020830191508360018202830111156105bf576105be610515565b5b9250929050565b600080600080600080608087890312156105e3576105e26104a3565b5b60006105f189828a016104f6565b965050602061060289828a016104f6565b955050604087013567ffffffffffffffff811115610623576106226104a8565b5b61062f89828a0161051a565b9450945050606087013567ffffffffffffffff811115610652576106516104a8565b5b61065e89828a01610570565b92509250509295509295509295565b6000819050919050565b6106808161066d565b811461068b57600080fd5b50565b60008135905061069d81610677565b92915050565b6000602082840312156106b9576106b86104a3565b5b60006106c78482850161068e565b91505092915050565b6106d9816104cd565b82525050565b600081519050919050565b600082825260208201905092915050565b60005b838110156107195780820151818401526020810190506106fe565b60008484015250505050565b6000601f19601f8301169050919050565b6000610741826106df565b61074b81856106ea565b935061075b8185602086016106fb565b61076481610725565b840191505092915050565b6107788161066d565b82525050565b600081519050919050565b600082825260208201905092915050565b60006107a58261077e565b6107af8185610789565b93506107bf8185602086016106fb565b6107c881610725565b840191505092915050565b600060a0820190506107e860008301886106d0565b6107f560208301876106d0565b81810360408301526108078186610736565b9050610816606083018561076f565b8181036080830152610828818461079a565b90509695505050505050565b6000602082019050610849600083018461076f565b92915050565b7f4e487b7100000000000000000000000000000000000000000000000000000000600052604160045260246000fd5b7f4e487b7100000000000000000000000000000000000000000000000000000000600052602260045260246000fd5b600060028204905060018216806108c557607f821691505b6020821081036108d8576108d761087e565b5b50919050565b60008190508160005260206000209050919050565b60006020601f8301049050919050565b600082821b905092915050565b6000600883026109407fffffffffffffffffffffffffffffffffffffffffffffffffffffffffffffffff82610903565b61094a8683610903565b95508019841693508086168417925050509392505050565b6000819050919050565b600061098761098261097d8461066d565b610962565b61066d565b9050919050565b6000819050919050565b6109a18361096c565b6109b56109ad8261098e565b848454610910565b825550505050565b600090565b6109ca6109bd565b6109d5818484610998565b505050565b5b818110156109f9576109ee6000826109c2565b6001810190506109db565b5050565b601f821115610a3e57610a0f816108de565b610a18846108f3565b81016020851015610a27578190505b610a3b610a33856108f3565b8301826109da565b50505b505050565b600082821c905092915050565b6000610a6160001984600802610a43565b1980831691505092915050565b6000610a7a8383610a50565b9150826002028217905092915050565b610a93826106df565b67ffffffffffffffff811115610aac57610aab61084f565b5b610ab682546108ad565b610ac18282856109fd565b600060209050601f831160018114610af45760008415610ae2578287015190505b610aec8582610a6e565b865550610b54565b601f198416610b02866108de565b60005b82811015610b2a57848901518255600182019150602085019450602081019050610b05565b86831015610b475784890151610b43601f891682610a50565b8355505b6001600288020188555050505b505050505050565b60008190508160005260206000209050919050565b601f821115610bb257610b8381610b5c565b610b8c846108f3565b81016020851015610b9b578190505b610baf610ba7856108f3565b8301826109da565b50505b505050565b610bc08261077e565b67ffffffffffffffff811115610bd957610bd861084f565b5b610be382546108ad565b610bee828285610b71565b600060209050601f831160018114610c215760008415610c0f578287015190505b610c198582610a6e565b865550610c81565b601f198416610c2f86610b5c565b60005b82811015610c5757848901518255600182019150602085019450602081019050610c32565b86831015610c745784890151610c70601f891682610a50565b8355505b6001600288020188555050505b505050505050565b7f4e487b7100000000000000000000000000000000000000000000000000000000600052601160045260246000fd5b6000610cc38261066d565b9150610cce8361066d565b9250828203905081811115610ce657610ce5610c89565b5b92915050565b82818337600083830152505050565b6000610d0783856106ea565b9350610d14838584610cec565b610d1d83610725565b840190509392505050565b60006020820190508181036000830152610d43818486610cfb565b9050939250505056fea2646970667358221220e4b70ba862634b045ec139ad3e0b50c2e116ed7cd114f7dbab0a85768e83f28c64736f6c63430008130033",
  "linkReferences": {},
  "deployedLinkReferences": {},
  "immutableReferences": {},
  "inputSourceName": "project/contracts/AlertRegistry.sol",
  "buildInfoId": "solc-0_8_19-9d1bef7187471d870c5c575c6b9cef1697602b5b"
}